{
  "_format": "hh-sol-artifact-1",
  "contractName": "MultiTokenExchange",
  "sourceName": "contracts/MultiTokenExchange.sol",
  "abi": [
    {
      "inputs": [
        {
          "internalType": "address",
          "name": "_fakeUSD",
          "type": "address"
        },
        {
          "internalType": "address",
          "name": "_initialOwner",
          "type": "address"
        }
      ],
      "stateMutability": "nonpayable",
      "type": "constructor"
    },
    {
      "inputs": [
        {
          "internalType": "address",
          "name": "owner",
          "type": "address"
        }
      ],
      "name": "OwnableInvalidOwner",
      "type": "error"
    },
    {
      "inputs": [
        {
          "internalType": "address",
          "name": "account",
          "type": "address"
        }
      ],
      "name": "OwnableUnauthorizedAccount",
      "type": "error"
    },
    {
      "anonymous": false,
      "inputs": [
        {
          "indexed": true,
          "internalType": "address",
          "name": "previousOwner",
          "type": "address"
        },
        {
          "indexed": true,
          "internalType": "address",
          "name": "newOwner",
          "type": "address"
        }
      ],
      "name": "OwnershipTransferred",
      "type": "event"
    },
    {
      "inputs": [],
      "name": "FUSD_ADDRESS",
      "outputs": [
        {
          "internalType": "address",
          "name": "",
          "type": "address"
        }
      ],
      "stateMutability": "view",
      "type": "function"
    },
    {
      "inputs": [
        {
          "internalType": "address",
          "name": "token",
          "type": "address"
        },
        {
          "internalType": "string",
          "name": "name",
          "type": "string"
        },
        {
          "internalType": "uint256",
          "name": "initialPrice",
          "type": "uint256"
        }
      ],
      "name": "addToken",
      "outputs": [],
      "stateMutability": "nonpayable",
      "type": "function"
    },
    {
      "inputs": [
        {
          "internalType": "address",
          "name": "",
          "type": "address"
        },
        {
          "internalType": "address",
          "name": "",
          "type": "address"
        }
      ],
      "name": "balances",
      "outputs": [
        {
          "internalType": "uint256",
          "name": "",
          "type": "uint256"
        }
      ],
      "stateMutability": "view",
      "type": "function"
    },
    {
      "inputs": [
        {
          "internalType": "address",
          "name": "token",
          "type": "address"
        },
        {
          "internalType": "uint256",
          "name": "amountToken",
          "type": "uint256"
        }
      ],
      "name": "buyToken",
      "outputs": [],
      "stateMutability": "nonpayable",
      "type": "function"
    },
    {
      "inputs": [
        {
          "internalType": "address",
          "name": "token",
          "type": "address"
        },
        {
          "internalType": "uint256",
          "name": "amount",
          "type": "uint256"
        }
      ],
      "name": "deposit",
      "outputs": [],
      "stateMutability": "nonpayable",
      "type": "function"
    },
    {
      "inputs": [],
      "name": "fakeUSD",
      "outputs": [
        {
          "internalType": "contract IERC20",
          "name": "",
          "type": "address"
        }
      ],
      "stateMutability": "view",
      "type": "function"
    },
    {
      "inputs": [],
      "name": "getSupportedTokens",
      "outputs": [
        {
          "components": [
            {
              "internalType": "address",
              "name": "token",
              "type": "address"
            },
            {
              "internalType": "string",
              "name": "name",
              "type": "string"
            }
          ],
          "internalType": "struct MultiTokenExchange.TokenInfo[]",
          "name": "",
          "type": "tuple[]"
        }
      ],
      "stateMutability": "view",
      "type": "function"
    },
    {
      "inputs": [
        {
          "internalType": "address",
          "name": "user",
          "type": "address"
        },
        {
          "internalType": "address",
          "name": "token",
          "type": "address"
        }
      ],
      "name": "getUserBalance",
      "outputs": [
        {
          "internalType": "uint256",
          "name": "",
          "type": "uint256"
        }
      ],
      "stateMutability": "view",
      "type": "function"
    },
    {
      "inputs": [],
      "name": "owner",
      "outputs": [
        {
          "internalType": "address",
          "name": "",
          "type": "address"
        }
      ],
      "stateMutability": "view",
      "type": "function"
    },
    {
      "inputs": [],
      "name": "renounceOwnership",
      "outputs": [],
      "stateMutability": "nonpayable",
      "type": "function"
    },
    {
      "inputs": [
        {
          "internalType": "address",
          "name": "token",
          "type": "address"
        },
        {
          "internalType": "uint256",
          "name": "amountToken",
          "type": "uint256"
        }
      ],
      "name": "sellToken",
      "outputs": [],
      "stateMutability": "nonpayable",
      "type": "function"
    },
    {
      "inputs": [
        {
          "internalType": "uint256",
          "name": "",
          "type": "uint256"
        }
      ],
      "name": "supportedTokens",
      "outputs": [
        {
          "internalType": "address",
          "name": "token",
          "type": "address"
        },
        {
          "internalType": "string",
          "name": "name",
          "type": "string"
        }
      ],
      "stateMutability": "view",
      "type": "function"
    },
    {
      "inputs": [
        {
          "internalType": "address",
          "name": "",
          "type": "address"
        }
      ],
      "name": "tokenPrices",
      "outputs": [
        {
          "internalType": "uint256",
          "name": "",
          "type": "uint256"
        }
      ],
      "stateMutability": "view",
      "type": "function"
    },
    {
      "inputs": [
        {
          "internalType": "address",
          "name": "newOwner",
          "type": "address"
        }
      ],
      "name": "transferOwnership",
      "outputs": [],
      "stateMutability": "nonpayable",
      "type": "function"
    },
    {
      "inputs": [
        {
          "internalType": "address",
          "name": "token",
          "type": "address"
        },
        {
          "internalType": "uint256",
          "name": "newPrice",
          "type": "uint256"
        }
      ],
      "name": "updatePrice",
      "outputs": [],
      "stateMutability": "nonpayable",
      "type": "function"
    },
    {
      "inputs": [
        {
          "internalType": "address",
          "name": "token",
          "type": "address"
        },
        {
          "internalType": "uint256",
          "name": "amount",
          "type": "uint256"
        }
      ],
      "name": "withdraw",
      "outputs": [],
      "stateMutability": "nonpayable",
      "type": "function"
    }
  ],
  "bytecode": "0x608060405234801561001057600080fd5b5060405161267b38038061267b83398181016040528101906100329190610224565b80600073ffffffffffffffffffffffffffffffffffffffff168173ffffffffffffffffffffffffffffffffffffffff16036100a55760006040517f1e4fbdf700000000000000000000000000000000000000000000000000000000815260040161009c9190610273565b60405180910390fd5b6100b4816100fd60201b60201c565b5081600160006101000a81548173ffffffffffffffffffffffffffffffffffffffff021916908373ffffffffffffffffffffffffffffffffffffffff160217905550505061028e565b60008060009054906101000a900473ffffffffffffffffffffffffffffffffffffffff169050816000806101000a81548173ffffffffffffffffffffffffffffffffffffffff021916908373ffffffffffffffffffffffffffffffffffffffff1602179055508173ffffffffffffffffffffffffffffffffffffffff168173ffffffffffffffffffffffffffffffffffffffff167f8be0079c531659141344cd1fd0a4f28419497f9722a3daafe3b4186f6b6457e060405160405180910390a35050565b600080fd5b600073ffffffffffffffffffffffffffffffffffffffff82169050919050565b60006101f1826101c6565b9050919050565b610201816101e6565b811461020c57600080fd5b50565b60008151905061021e816101f8565b92915050565b6000806040838503121561023b5761023a6101c1565b5b60006102498582860161020f565b925050602061025a8582860161020f565b9150509250929050565b61026d816101e6565b82525050565b60006020820190506102886000830184610264565b92915050565b6123de8061029d6000396000f3fe608060405234801561001057600080fd5b50600436106101005760003560e01c8063c23f001f11610097578063f27b0eb211610066578063f27b0eb21461029a578063f2fde38b146102b8578063f3fef3a3146102d4578063f464e7db146102f057610100565b8063c23f001f146101ff578063c62556261461022f578063d3c7c2c714610260578063ea55020a1461027e57610100565b806368f8fc10116100d357806368f8fc101461019d578063715018a6146101b95780638ab8c7c2146101c35780638da5cb5b146101e157610100565b8063204120bc14610105578063457972de1461013557806347e7ef24146101515780636805d6ad1461016d575b600080fd5b61011f600480360381019061011a91906115ba565b61030c565b60405161012c9190611600565b60405180910390f35b61014f600480360381019061014a9190611647565b610324565b005b61016b60048036038101906101669190611647565b610439565b005b61018760048036038101906101829190611687565b6105d2565b6040516101949190611600565b60405180910390f35b6101b760048036038101906101b29190611647565b610659565b005b6101c16109ae565b005b6101cb6109c2565b6040516101d89190611726565b60405180910390f35b6101e96109e8565b6040516101f69190611750565b60405180910390f35b61021960048036038101906102149190611687565b610a11565b6040516102269190611600565b60405180910390f35b6102496004803603810190610244919061176b565b610a36565b604051610257929190611828565b60405180910390f35b610268610b12565b60405161027591906119b0565b60405180910390f35b61029860048036038101906102939190611b07565b610c59565b005b6102a2610de1565b6040516102af9190611750565b60405180910390f35b6102d260048036038101906102cd91906115ba565b610de6565b005b6102ee60048036038101906102e99190611647565b610e6c565b005b61030a60048036038101906103059190611647565b6110c2565b005b60026020528060005260406000206000915090505481565b61032c6113f5565b6000600260008473ffffffffffffffffffffffffffffffffffffffff1673ffffffffffffffffffffffffffffffffffffffff16815260200190815260200160002054036103ae576040517f08c379a00000000000000000000000000000000000000000000000000000000081526004016103a590611bc2565b60405180910390fd5b600081116103f1576040517f08c379a00000000000000000000000000000000000000000000000000000000081526004016103e890611c2e565b60405180910390fd5b80600260008473ffffffffffffffffffffffffffffffffffffffff1673ffffffffffffffffffffffffffffffffffffffff168152602001908152602001600020819055505050565b6000811161047c576040517f08c379a000000000000000000000000000000000000000000000000000000000815260040161047390611c9a565b60405180910390fd5b8173ffffffffffffffffffffffffffffffffffffffff166323b872dd3330846040518463ffffffff1660e01b81526004016104b993929190611cba565b6020604051808303816000875af11580156104d8573d6000803e3d6000fd5b505050506040513d601f19601f820116820180604052508101906104fc9190611d29565b61053b576040517f08c379a000000000000000000000000000000000000000000000000000000000815260040161053290611da2565b60405180910390fd5b80600460003373ffffffffffffffffffffffffffffffffffffffff1673ffffffffffffffffffffffffffffffffffffffff16815260200190815260200160002060008473ffffffffffffffffffffffffffffffffffffffff1673ffffffffffffffffffffffffffffffffffffffff16815260200190815260200160002060008282546105c79190611df1565b925050819055505050565b6000600460008473ffffffffffffffffffffffffffffffffffffffff1673ffffffffffffffffffffffffffffffffffffffff16815260200190815260200160002060008373ffffffffffffffffffffffffffffffffffffffff1673ffffffffffffffffffffffffffffffffffffffff16815260200190815260200160002054905092915050565b6000600260008473ffffffffffffffffffffffffffffffffffffffff1673ffffffffffffffffffffffffffffffffffffffff16815260200190815260200160002054036106db576040517f08c379a00000000000000000000000000000000000000000000000000000000081526004016106d290611bc2565b60405180910390fd5b6000811161071e576040517f08c379a000000000000000000000000000000000000000000000000000000000815260040161071590611c9a565b60405180910390fd5b6000670de0b6b3a7640000600260008573ffffffffffffffffffffffffffffffffffffffff1673ffffffffffffffffffffffffffffffffffffffff16815260200190815260200160002054836107749190611e25565b61077e9190611e96565b905080600460003373ffffffffffffffffffffffffffffffffffffffff1673ffffffffffffffffffffffffffffffffffffffff1681526020019081526020016000206000600160009054906101000a900473ffffffffffffffffffffffffffffffffffffffff1673ffffffffffffffffffffffffffffffffffffffff1673ffffffffffffffffffffffffffffffffffffffff168152602001908152602001600020541015610861576040517f08c379a000000000000000000000000000000000000000000000000000000000815260040161085890611f13565b60405180910390fd5b80600460003373ffffffffffffffffffffffffffffffffffffffff1673ffffffffffffffffffffffffffffffffffffffff1681526020019081526020016000206000600160009054906101000a900473ffffffffffffffffffffffffffffffffffffffff1673ffffffffffffffffffffffffffffffffffffffff1673ffffffffffffffffffffffffffffffffffffffff168152602001908152602001600020600082825461090f9190611f33565b9250508190555081600460003373ffffffffffffffffffffffffffffffffffffffff1673ffffffffffffffffffffffffffffffffffffffff16815260200190815260200160002060008573ffffffffffffffffffffffffffffffffffffffff1673ffffffffffffffffffffffffffffffffffffffff16815260200190815260200160002060008282546109a29190611df1565b92505081905550505050565b6109b66113f5565b6109c0600061147c565b565b600160009054906101000a900473ffffffffffffffffffffffffffffffffffffffff1681565b60008060009054906101000a900473ffffffffffffffffffffffffffffffffffffffff16905090565b6004602052816000526040600020602052806000526040600020600091509150505481565b60038181548110610a4657600080fd5b90600052602060002090600202016000915090508060000160009054906101000a900473ffffffffffffffffffffffffffffffffffffffff1690806001018054610a8f90611f96565b80601f0160208091040260200160405190810160405280929190818152602001828054610abb90611f96565b8015610b085780601f10610add57610100808354040283529160200191610b08565b820191906000526020600020905b815481529060010190602001808311610aeb57829003601f168201915b5050505050905082565b60606003805480602002602001604051908101604052809291908181526020016000905b82821015610c5057838290600052602060002090600202016040518060400160405290816000820160009054906101000a900473ffffffffffffffffffffffffffffffffffffffff1673ffffffffffffffffffffffffffffffffffffffff1673ffffffffffffffffffffffffffffffffffffffff168152602001600182018054610bbf90611f96565b80601f0160208091040260200160405190810160405280929190818152602001828054610beb90611f96565b8015610c385780601f10610c0d57610100808354040283529160200191610c38565b820191906000526020600020905b815481529060010190602001808311610c1b57829003601f168201915b50505050508152505081526020019060010190610b36565b50505050905090565b610c616113f5565b6000600260008573ffffffffffffffffffffffffffffffffffffffff1673ffffffffffffffffffffffffffffffffffffffff1681526020019081526020016000205414610ce3576040517f08c379a0000000000000000000000000000000000000000000000000000000008152600401610cda90612013565b60405180910390fd5b80600260008573ffffffffffffffffffffffffffffffffffffffff1673ffffffffffffffffffffffffffffffffffffffff16815260200190815260200160002081905550600360405180604001604052808573ffffffffffffffffffffffffffffffffffffffff16815260200184815250908060018154018082558091505060019003906000526020600020906002020160009091909190915060008201518160000160006101000a81548173ffffffffffffffffffffffffffffffffffffffff021916908373ffffffffffffffffffffffffffffffffffffffff1602179055506020820151816001019081610dd991906121d5565b505050505050565b600081565b610dee6113f5565b600073ffffffffffffffffffffffffffffffffffffffff168173ffffffffffffffffffffffffffffffffffffffff1603610e605760006040517f1e4fbdf7000000000000000000000000000000000000000000000000000000008152600401610e579190611750565b60405180910390fd5b610e698161147c565b50565b60008111610eaf576040517f08c379a0000000000000000000000000000000000000000000000000000000008152600401610ea690611c9a565b60405180910390fd5b80600460003373ffffffffffffffffffffffffffffffffffffffff1673ffffffffffffffffffffffffffffffffffffffff16815260200190815260200160002060008473ffffffffffffffffffffffffffffffffffffffff1673ffffffffffffffffffffffffffffffffffffffff168152602001908152602001600020541015610f6e576040517f08c379a0000000000000000000000000000000000000000000000000000000008152600401610f65906122f3565b60405180910390fd5b80600460003373ffffffffffffffffffffffffffffffffffffffff1673ffffffffffffffffffffffffffffffffffffffff16815260200190815260200160002060008473ffffffffffffffffffffffffffffffffffffffff1673ffffffffffffffffffffffffffffffffffffffff1681526020019081526020016000206000828254610ffa9190611f33565b925050819055508173ffffffffffffffffffffffffffffffffffffffff1663a9059cbb33836040518363ffffffff1660e01b815260040161103c929190612313565b6020604051808303816000875af115801561105b573d6000803e3d6000fd5b505050506040513d601f19601f8201168201806040525081019061107f9190611d29565b6110be576040517f08c379a00000000000000000000000000000000000000000000000000000000081526004016110b590611da2565b60405180910390fd5b5050565b6000600260008473ffffffffffffffffffffffffffffffffffffffff1673ffffffffffffffffffffffffffffffffffffffff1681526020019081526020016000205403611144576040517f08c379a000000000000000000000000000000000000000000000000000000000815260040161113b90611bc2565b60405180910390fd5b60008111611187576040517f08c379a000000000000000000000000000000000000000000000000000000000815260040161117e90611c9a565b60405180910390fd5b80600460003373ffffffffffffffffffffffffffffffffffffffff1673ffffffffffffffffffffffffffffffffffffffff16815260200190815260200160002060008473ffffffffffffffffffffffffffffffffffffffff1673ffffffffffffffffffffffffffffffffffffffff168152602001908152602001600020541015611246576040517f08c379a000000000000000000000000000000000000000000000000000000000815260040161123d90612388565b60405180910390fd5b6000670de0b6b3a7640000600260008573ffffffffffffffffffffffffffffffffffffffff1673ffffffffffffffffffffffffffffffffffffffff168152602001908152602001600020548361129c9190611e25565b6112a69190611e96565b905081600460003373ffffffffffffffffffffffffffffffffffffffff1673ffffffffffffffffffffffffffffffffffffffff16815260200190815260200160002060008573ffffffffffffffffffffffffffffffffffffffff1673ffffffffffffffffffffffffffffffffffffffff16815260200190815260200160002060008282546113349190611f33565b9250508190555080600460003373ffffffffffffffffffffffffffffffffffffffff1673ffffffffffffffffffffffffffffffffffffffff1681526020019081526020016000206000600160009054906101000a900473ffffffffffffffffffffffffffffffffffffffff1673ffffffffffffffffffffffffffffffffffffffff1673ffffffffffffffffffffffffffffffffffffffff16815260200190815260200160002060008282546113e99190611df1565b92505081905550505050565b6113fd611540565b73ffffffffffffffffffffffffffffffffffffffff1661141b6109e8565b73ffffffffffffffffffffffffffffffffffffffff161461147a5761143e611540565b6040517f118cdaa70000000000000000000000000000000000000000000000000000000081526004016114719190611750565b60405180910390fd5b565b60008060009054906101000a900473ffffffffffffffffffffffffffffffffffffffff169050816000806101000a81548173ffffffffffffffffffffffffffffffffffffffff021916908373ffffffffffffffffffffffffffffffffffffffff1602179055508173ffffffffffffffffffffffffffffffffffffffff168173ffffffffffffffffffffffffffffffffffffffff167f8be0079c531659141344cd1fd0a4f28419497f9722a3daafe3b4186f6b6457e060405160405180910390a35050565b600033905090565b6000604051905090565b600080fd5b600080fd5b600073ffffffffffffffffffffffffffffffffffffffff82169050919050565b60006115878261155c565b9050919050565b6115978161157c565b81146115a257600080fd5b50565b6000813590506115b48161158e565b92915050565b6000602082840312156115d0576115cf611552565b5b60006115de848285016115a5565b91505092915050565b6000819050919050565b6115fa816115e7565b82525050565b600060208201905061161560008301846115f1565b92915050565b611624816115e7565b811461162f57600080fd5b50565b6000813590506116418161161b565b92915050565b6000806040838503121561165e5761165d611552565b5b600061166c858286016115a5565b925050602061167d85828601611632565b9150509250929050565b6000806040838503121561169e5761169d611552565b5b60006116ac858286016115a5565b92505060206116bd858286016115a5565b9150509250929050565b6000819050919050565b60006116ec6116e76116e28461155c565b6116c7565b61155c565b9050919050565b60006116fe826116d1565b9050919050565b6000611710826116f3565b9050919050565b61172081611705565b82525050565b600060208201905061173b6000830184611717565b92915050565b61174a8161157c565b82525050565b60006020820190506117656000830184611741565b92915050565b60006020828403121561178157611780611552565b5b600061178f84828501611632565b91505092915050565b600081519050919050565b600082825260208201905092915050565b60005b838110156117d25780820151818401526020810190506117b7565b60008484015250505050565b6000601f19601f8301169050919050565b60006117fa82611798565b61180481856117a3565b93506118148185602086016117b4565b61181d816117de565b840191505092915050565b600060408201905061183d6000830185611741565b818103602083015261184f81846117ef565b90509392505050565b600081519050919050565b600082825260208201905092915050565b6000819050602082019050919050565b61188d8161157c565b82525050565b600082825260208201905092915050565b60006118af82611798565b6118b98185611893565b93506118c98185602086016117b4565b6118d2816117de565b840191505092915050565b60006040830160008301516118f56000860182611884565b506020830151848203602086015261190d82826118a4565b9150508091505092915050565b600061192683836118dd565b905092915050565b6000602082019050919050565b600061194682611858565b6119508185611863565b93508360208202850161196285611874565b8060005b8581101561199e578484038952815161197f858261191a565b945061198a8361192e565b925060208a01995050600181019050611966565b50829750879550505050505092915050565b600060208201905081810360008301526119ca818461193b565b905092915050565b600080fd5b600080fd5b7f4e487b7100000000000000000000000000000000000000000000000000000000600052604160045260246000fd5b611a14826117de565b810181811067ffffffffffffffff82111715611a3357611a326119dc565b5b80604052505050565b6000611a46611548565b9050611a528282611a0b565b919050565b600067ffffffffffffffff821115611a7257611a716119dc565b5b611a7b826117de565b9050602081019050919050565b82818337600083830152505050565b6000611aaa611aa584611a57565b611a3c565b905082815260208101848484011115611ac657611ac56119d7565b5b611ad1848285611a88565b509392505050565b600082601f830112611aee57611aed6119d2565b5b8135611afe848260208601611a97565b91505092915050565b600080600060608486031215611b2057611b1f611552565b5b6000611b2e868287016115a5565b935050602084013567ffffffffffffffff811115611b4f57611b4e611557565b5b611b5b86828701611ad9565b9250506040611b6c86828701611632565b9150509250925092565b7f546f6b656e206e6f7420737570706f7274656400000000000000000000000000600082015250565b6000611bac6013836117a3565b9150611bb782611b76565b602082019050919050565b60006020820190508181036000830152611bdb81611b9f565b9050919050565b7f5072696365206d757374206265203e2030000000000000000000000000000000600082015250565b6000611c186011836117a3565b9150611c2382611be2565b602082019050919050565b60006020820190508181036000830152611c4781611c0b565b9050919050565b7f416d6f756e74206d757374206265203e20300000000000000000000000000000600082015250565b6000611c846012836117a3565b9150611c8f82611c4e565b602082019050919050565b60006020820190508181036000830152611cb381611c77565b9050919050565b6000606082019050611ccf6000830186611741565b611cdc6020830185611741565b611ce960408301846115f1565b949350505050565b60008115159050919050565b611d0681611cf1565b8114611d1157600080fd5b50565b600081519050611d2381611cfd565b92915050565b600060208284031215611d3f57611d3e611552565b5b6000611d4d84828501611d14565b91505092915050565b7f5472616e73666572206661696c65640000000000000000000000000000000000600082015250565b6000611d8c600f836117a3565b9150611d9782611d56565b602082019050919050565b60006020820190508181036000830152611dbb81611d7f565b9050919050565b7f4e487b7100000000000000000000000000000000000000000000000000000000600052601160045260246000fd5b6000611dfc826115e7565b9150611e07836115e7565b9250828201905080821115611e1f57611e1e611dc2565b5b92915050565b6000611e30826115e7565b9150611e3b836115e7565b9250828202611e49816115e7565b91508282048414831517611e6057611e5f611dc2565b5b5092915050565b7f4e487b7100000000000000000000000000000000000000000000000000000000600052601260045260246000fd5b6000611ea1826115e7565b9150611eac836115e7565b925082611ebc57611ebb611e67565b5b828204905092915050565b7f4e6f7420656e6f75676820465553440000000000000000000000000000000000600082015250565b6000611efd600f836117a3565b9150611f0882611ec7565b602082019050919050565b60006020820190508181036000830152611f2c81611ef0565b9050919050565b6000611f3e826115e7565b9150611f49836115e7565b9250828203905081811115611f6157611f60611dc2565b5b92915050565b7f4e487b7100000000000000000000000000000000000000000000000000000000600052602260045260246000fd5b60006002820490506001821680611fae57607f821691505b602082108103611fc157611fc0611f67565b5b50919050565b7f546f6b656e20616c726561647920616464656400000000000000000000000000600082015250565b6000611ffd6013836117a3565b915061200882611fc7565b602082019050919050565b6000602082019050818103600083015261202c81611ff0565b9050919050565b60008190508160005260206000209050919050565b60006020601f8301049050919050565b600082821b905092915050565b6000600883026120957fffffffffffffffffffffffffffffffffffffffffffffffffffffffffffffffff82612058565b61209f8683612058565b95508019841693508086168417925050509392505050565b60006120d26120cd6120c8846115e7565b6116c7565b6115e7565b9050919050565b6000819050919050565b6120ec836120b7565b6121006120f8826120d9565b848454612065565b825550505050565b600090565b612115612108565b6121208184846120e3565b505050565b5b818110156121445761213960008261210d565b600181019050612126565b5050565b601f8211156121895761215a81612033565b61216384612048565b81016020851015612172578190505b61218661217e85612048565b830182612125565b50505b505050565b600082821c905092915050565b60006121ac6000198460080261218e565b1980831691505092915050565b60006121c5838361219b565b9150826002028217905092915050565b6121de82611798565b67ffffffffffffffff8111156121f7576121f66119dc565b5b6122018254611f96565b61220c828285612148565b600060209050601f83116001811461223f576000841561222d578287015190505b61223785826121b9565b86555061229f565b601f19841661224d86612033565b60005b8281101561227557848901518255600182019150602085019450602081019050612250565b86831015612292578489015161228e601f89168261219b565b8355505b6001600288020188555050505b505050505050565b7f496e73756666696369656e742062616c616e6365000000000000000000000000600082015250565b60006122dd6014836117a3565b91506122e8826122a7565b602082019050919050565b6000602082019050818103600083015261230c816122d0565b9050919050565b60006040820190506123286000830185611741565b61233560208301846115f1565b9392505050565b7f4e6f7420656e6f75676820746f6b656e00000000000000000000000000000000600082015250565b60006123726010836117a3565b915061237d8261233c565b602082019050919050565b600060208201905081810360008301526123a181612365565b905091905056fea26469706673582212207ede6cad2b6162579933e061877c380ed1b1ea37c535578551feab53806a12f964736f6c634300081c0033",
  "linkReferences": {},
  "deployedLinkReferences": {}
}